:100000000C946C000C9489000C9489000C94890069
:100010000C9489000C9489000C9489000C94CC00F9
:100020000C9489000C9489000C9489000C9489002C
:100030000C9489000C9489000C9489000C9489001C
:100040000C9489010C9489000C9489000C9489000B
:100050000C9489000C9489000C9489000C948900FC
:100060000C9489000C94890005A84CCDB2D44EB9EB
:100070003836A9020C50B9918688083CA6AAAA2A4B
:10008000BE000000803F00000007000201000003E6
:10009000040600000000000000000200000000252F
:1000A0000028002B0000000000240027002A000484
:1000B000040404040404040202020202020303030F
:1000C0000303030102040810204080010204081009
:1000D000200102040810200011241FBECFEFD8E039
:1000E000DEBFCDBF11E0A0E0B1E0EAE6FDE002C076
:1000F00005900D92A230B107D9F721E0A2E0B1E05E
:1001000001C01D92AC31B207E1F70E94D3010C94FB
:1001100048040C940000EBECF0E02491E7EBF0E0F5
:100120008491882399F090E0880F991FFC01EB558A
:10013000FF4FA591B491FC01E556FF4F8591949135
:100140008FB7F894EC91E22BEC938FBF08953FB7F3
:10015000F8948091070190910801A0910901B09154
:100160000A0126B5A89B05C02F3F19F00196A11DD5
:10017000B11D3FBFBA2FA92F982F8827820F911D3D
:10018000A11DB11DBC01CD0142E0660F771F881F84
:10019000991F4A95D1F708951F920F920FB60F92AB
:1001A00011242F933F938F939F93AF93BF93EF931C
:1001B000FF938091100190911101A0911201B091D3
:1001C0001301892B8A2B8B2B59F190910B01E09114
:1001D0000C01F0910D0180818927808380911001AD
:1001E00090911101A0911201B091130118161906F6
:1001F0001A061B060CF080C080911001909111012D
:10020000A0911201B09113010197A109B109809346
:10021000100190931101A0931201B09313016CC0CF
:1002200080910001EAE9F0E0E4919FEF90930001F2
:10023000E130B9F098F0E230C9F4909170009D7F00
:100240009093700091E09093B0009091B100987FEE
:1002500094609093B1001092B30008C010926E00A9
:1002600005C090916F009D7F90936F0090E0FC011E
:10027000EA57FF4F2491FC01ED53FF4F3491FC01ED
:10028000E155FF4FE491EE23B9F1222339F12330F8
:1002900091F038F42130A9F0223001F584B58F7D3A
:1002A00012C0263091F02730A1F02430B9F48091AB
:1002B00080008F7D03C0809180008F7780938000C5
:1002C0000DC084B58F7784BD09C08091B0008F7751
:1002D00003C08091B0008F7D8093B000F0E0EE0FFE
:1002E000FF1FE556FF4FA591B4919FB7F8948C91ED
:1002F000309538233C939FBFFF91EF91BF91AF9111
:100300009F918F913F912F910F900FBE0F901F9053
:1003100018951F920F920FB60F9211242F933F93AF
:100320008F939F93AF93BF938091030190910401AA
:10033000A0910501B09106013091020123E0230F45
:100340002D3720F40196A11DB11D05C026E8230F0D
:100350000296A11DB11D2093020180930301909389
:100360000401A0930501B0930601809107019091CB
:100370000801A0910901B0910A010196A11DB11DCA
:100380008093070190930801A0930901B0930A019B
:10039000BF91AF919F918F913F912F910F900FBE81
:1003A0000F901F901895789484B5826084BD84B5B1
:1003B000816084BD85B5826085BD85B5816085BD60
:1003C00080916E00816080936E0010928100809118
:1003D00081008260809381008091810081608093A0
:1003E0008100809180008160809380008091B100C5
:1003F00084608093B1008091B00081608093B000F0
:1004000080917A00846080937A0080917A00826083
:1004100080937A0080917A00816080937A00809145
:100420007A00806880937A001092C1000E948B004D
:1004300088248A94982C540100E010E0EBEC2E2ED6
:10044000E0E03E2EB801012E000C880B990B0E94B3
:10045000830422EA35EF4EE85CE30E94E7040E9441
:10046000540520E030E04AE754E40E94E7040E948B
:100470004B046B0120E3C21A28EFD20A80910001DD
:10048000883021F08F3F09F073C104C0EAE9F0E041
:10049000C4916DC088E080930001EAE9F0E0C49166
:1004A000CF3F09F465C1C13009F440C030F1C2301A
:1004B00009F05DC01092B0001092B1008091B000C0
:1004C00082608093B0008091B10081608093B10020
:1004D000E7EBF0E08491E82FF0E0EE0FFF1FE55628
:1004E000FF4F8591949190930D0180930C01F10140
:1004F000849180930B01C2E0C8C114BC15BC84B5C3
:10050000826084BD85B5816085BDE7EBF0E08491B4
:10051000E82FF0E0EE0FFF1FE556FF4F8591949115
:10052000F101849180930F01C0E0AFC1109280006F
:100530001092810080918100886080938100809179
:100540008100816080938100E7EBF0E08491E82FE7
:10055000F0E0EE0FFF1FE556FF4F85919491F101FA
:10056000849180930E010E948B00C1E09BC0C7FD67
:10057000FFC00E948B008C2F8D7F09F093C0E12C6F
:10058000F12C60E072E18AE790E0A70196010E94F9
:10059000720629013A01BA01A901415051096109C4
:1005A00071094F3F51056105710509F008F445C017
:1005B00060E472E48FE090E0A70196010E94720669
:1005C000BA01A9014150510961097109C230E9F428
:1005D0004F3F51056105710509F008F4F6C060E967
:1005E00070ED83E090E0A70196010E947206BA01C7
:1005F000A90141505109610971094F3F5105610538
:10060000710509F008F583E04AC04F3F51056105C7
:100610007105A9F0A0F068E478EE81E090E0A70110
:1006200096010E947206BA01A9014150510961095F
:100630007109CC2309F4CBC020C181E001C082E064
:10064000C1112DC085BD64C068E478EE81E090E002
:10065000A70196010E947206BA01A90141505109F1
:10066000610971094F3F51056105710509F008F4F1
:10067000AAC064E274EF80E090E0A70196010E94B6
:100680007206BA01A90141505109610971094F3F30
:1006900051056105710511F008F0C8C085E080932F
:1006A000B10030C0E12CF12C60E072E18AE790E00B
:1006B000A70196010E947206BA01A9014150510991
:1006C0006109710941155105F1E06F07710580F06D
:1006D00068E478EE81E090E0A70196010E9472063E
:1006E000BA01A901415051096109710983E001C0B2
:1006F00081E0C13039F490918100987F892B8093FB
:10070000810015C0C13099F0C23019F1C11130C05B
:1007100047BD8092180190921901A0921A01B092DF
:100720001B0180916E00826080936E0021C0509307
:100730008900409388008092140190921501A09244
:100740001601B092170180916F00826080936F0054
:100750000FC04093B3008092100190921101A092BB
:100760001201B0921301809170008260809370003A
:100770000E94A7003B0142E0C42ED12CE12CF12CB9
:100780000E94A70066197709683E7340C8F381E0AC
:10079000C81AD108E108F108E8E16E1AECEF7E0A08
:1007A000C114D104E104F10459F70F5F1F4F043B5A
:1007B000110509F047CE80E090E0892B09F43CCE8A
:1007C0000E94000039CE84E06ACF82E068CF4F3FBC
:1007D00051056105710541F138F162E17AE780E088
:1007E00090E0A70196010E947206BA01A90141504A
:1007F0005109610971094F3F51056105710591F07A
:1008000088F0D301C2013AE0B595A79597958795F1
:100810003A95D1F7AC01BD01415051096109710907
:1008200085E010CF84E00ECF83E00CCF62E17AE761
:1008300080E090E0A70196010E947206BA01A9012A
:1008400041505109610971094F3F51056105710519
:1008500091F088F0D301C2012AE0B595A79597954C
:1008600087952A95D1F7AC01BD0141505109610925
:10087000710987E014CF86E012CF4F3F5105610523
:10088000710509F098F684E0DBCE0E948B0077CEEC
:10089000F8940C94B3060E9452046894B1110C941D
:1008A000E10408950E94C60488F09F5798F0B92F7C
:1008B0009927B751B0F0E1F0660F771F881F991F95
:1008C0001AF0BA95C9F714C0B13091F00E94E00453
:1008D000B1E008950C94E004672F782F8827B85F63
:1008E00039F0B93FCCF3869577956795B395D9F7ED
:1008F0003EF490958095709561957F4F8F4F9F4FF7
:100900000895E89409C097FB3EF490958095709502
:1009100061957F4F8F4F9F4F9923A9F0F92F96E94B
:10092000BB279395F695879577956795B795F111C0
:10093000F8CFFAF4BB0F11F460FF1BC06F5F7F4F5D
:100940008F4F9F4F16C0882311F096E911C077236F
:1009500021F09EE8872F762F05C0662371F096E878
:10096000862F70E060E02AF09A95660F771F881F47
:10097000DAF7880F9695879597F9089557FD90585F
:10098000440F551F59F05F3F71F04795880F97FB53
:10099000991F61F09F3F79F087950895121613060D
:1009A0001406551FF2CF4695F1DF08C0161617063C
:1009B0001806991FF1CF8695710561050894089571
:1009C000E894BB2766277727CB0197F908950E9403
:1009D000FA040C949E050E94650538F00E946C058F
:1009E00020F0952311F00C945C050C946205112401
:1009F0000C94E1040E94BE0470F3959FC1F3950F1F
:100A000050E0551F629FF001729FBB27F00DB11D92
:100A1000639FAA27F00DB11DAA1F649F6627B00D22
:100A2000A11D661F829F2227B00DA11D621F739F0B
:100A3000B00DA11D621F839FA00D611D221F749F19
:100A40003327A00D611D231F849F600D211D822F60
:100A5000762F6A2F11249F5750409AF0F1F0882387
:100A60004AF0EE0FFF1FBB1F661F771F881F9150B4
:100A70005040A9F79E3F510580F00C945C050C9402
:100A8000E1045F3FE4F3983ED4F38695779567954C
:100A9000B795F795E7959F5FC1F7FE2B880F911DDE
:100AA0009695879597F908959F930E9475050F90E5
:100AB00007FCEE5F0C94AF0597F99F6780E870E044
:100AC00060E008959FEF80EC089500240A941616C4
:100AD000170618060906089500240A94121613062C
:100AE0001406050608950C9462050E94C604D8F306
:100AF000E894E0E0BB279F57F0F02AED3FE049EC97
:100B000006C0EE0FBB0F661F771F881F28F0B23A92
:100B100062077307840728F0B25A620B730B840BC9
:100B2000E3959A9572F7803830F49A95BB0F661F5B
:100B3000771F881FD2F790480C942B06092E039438
:100B4000000C11F4882352F0BB0F40F4BF2B11F4BA
:100B500060FF04C06F5F7F4F8F4F9F4F0895EF93EB
:100B6000E0FF07C0A2EA2AED3FE049EC5FEB0E94FC
:100B7000D4050E949E050F90039401FC9058E8E66E
:100B8000F0E00C9437060E94650538F00E946C0571
:100B900020F039F49F3F19F426F40C9462050EF40A
:100BA000E095E7FB0C945C05E92F0E94BE0458F326
:100BB000BA17620773078407950720F079F4A6F542
:100BC0000C94E0040EF4E0950B2EBA2FA02D0B012F
:100BD000B90190010C01CA01A0011124FF27591B82
:100BE00099F0593F50F4503E68F11A16F040A22F88
:100BF000232F342F4427585FF3CF469537952795F9
:100C0000A795F0405395C9F77EF41F16BA0B620BF7
:100C1000730B840BBAF09150A1F0FF0FBB1F661F3E
:100C2000771F881FC2F70EC0BA0F621F731F841F81
:100C300048F4879577956795B795F7959E3F08F0A7
:100C4000B0CF9395880F08F09927EE0F9795879569
:100C500008959F3F31F0915020F4879577956795DF
:100C6000B795880F911D9695879597F908959F934D
:100C70008F937F936F93FF93EF939B01AC010E943F
:100C8000E704EF91FF910E944B062F913F914F9106
:100C90005F910C94E704DF93CF931F930F93FF9220
:100CA000EF92DF927B018C01689406C0DA2EEF018F
:100CB0000E94FA04FE01E894A59125913591459191
:100CC0005591A6F3EF010E94D405FE019701A801FA
:100CD000DA9469F7DF90EF90FF900F911F91CF9119
:100CE000DF910895052E97FB1EF400940E9489065B
:100CF00057FD07D00E94910607FC03D04EF40C94D8
:100D0000890650954095309521953F4F4F4F5F4F45
:100D1000089590958095709561957F4F8F4F9F4F67
:100D20000895A1E21A2EAA1BBB1BFD010DC0AA1F2C
:100D3000BB1FEE1FFF1FA217B307E407F50720F044
:100D4000A21BB30BE40BF50B661F771F881F991FBF
:100D50001A9469F760957095809590959B01AC0108
:0A0D6000BD01CF010895F894FFCF04
:020D6A00FF0088
:00000001FF
