:100000000C945C000C9415010C94E8000C946E00A8
:100010000C946E000C946E000C946E000C946E00A8
:100020000C946E000C946E000C946E000C946E0098
:100030000C946E000C946E000C946E000C946E0088
:100040000C9442010C946E000C946E000C946E00A3
:100050000C946E000C946E000C946E000C946E0068
:100060000C946E000C946E0000000007000201006A
:100070000003040600000000000000000000000073
:10008000250028002B0000000000240027002A0083
:10009000040404040404040402020202020203032E
:1000A0000303030301020408102040800102040836
:1000B000102001020408102011241FBECFEFD8E049
:1000C000DEBFCDBF21E0A0E0B1E001C01D92AE30A7
:1000D000B207E1F70E948C010C9449020C940000D5
:1000E00080910D018F5F80930D01089590E0FC01D8
:1000F000E859FF4F2491FC01EC55FF4F3491FC016E
:10010000E057FF4FE491EE2309F43CC0222339F17C
:10011000233091F038F42130A9F0223001F584B574
:100120008F7D12C0263091F02730A1F02430B9F431
:10013000809180008F7D03C0809180008F778093B5
:1001400080000DC084B58F7784BD09C08091B00058
:100150008F7703C08091B0008F7D8093B000F0E076
:10016000EE0FFF1FE458FF4FA591B4919FB7F8948D
:10017000611104C08C913095382302C0EC913E2B64
:100180003C939FBF08953FB7F894809105019091EB
:100190000601A0910701B091080126B5A89B05C0F2
:1001A0002F3F19F00196A11DB11D3FBFBA2FA92FF6
:1001B000982F8827820F911DA11DB11DBC01CD0173
:1001C00042E0660F771F881F991F4A95D1F708955F
:1001D0001F920F920FB60F9211242F933F934F93BC
:1001E0005F936F937F938F939F93AF93BF93EF939F
:1001F000FF9380910B0190910C01892B29F0E091E4
:100200000B01F0910C010995FF91EF91BF91AF9116
:100210009F918F917F916F915F914F913F912F911E
:100220000F900FBE0F901F9018951F920F920FB650
:100230000F9211242F933F934F935F936F937F936C
:100240008F939F93AF93BF93EF93FF938091090197
:1002500090910A01892B29F0E0910901F0910A019E
:100260000995FF91EF91BF91AF919F918F917F91F0
:100270006F915F914F913F912F910F900FBE0F9013
:100280001F9018951F920F920FB60F9211242F9363
:100290003F938F939F93AF93BF9380910101909170
:1002A0000201A0910301B09104013091000123E00B
:1002B000230F2D3720F40196A11DB11D05C026E89E
:1002C000230F0296A11DB11D20930001809301010F
:1002D00090930201A0930301B09304018091050162
:1002E00090910601A0910701B09108010196A11D0E
:1002F000B11D8093050190930601A0930701B0936F
:100300000801BF91AF919F918F913F912F910F90D5
:100310000FBE0F901F901895789484B5826084BDAD
:1003200084B5816084BD85B5826085BD85B58160F9
:1003300085BD80916E00816080936E001092810077
:100340008091810082608093810080918100816032
:1003500080938100809180008160809380008091F3
:10036000B10084608093B1008091B000816080937F
:10037000B00080917A00846080937A0080917A0046
:10038000826080937A0080917A00816080937A0005
:1003900080917A00806880937A001092C100E1EB2E
:1003A000F0E02491EDE9F0E08491882399F090E069
:1003B000880F991FFC01EA57FF4FA591B491FC01EA
:1003C000E458FF4F859194918FB7F894EC91E22B0C
:1003D000EC938FBFE7EAF0E02491E3E9F0E0849149
:1003E0008823C1F090E0880F991FFC01EA57FF4F66
:1003F000C591D491FC01E458FF4FA591B4919FB7EA
:10040000F8948881E22FE0958E2388838C91E823ED
:10041000EC939FBF80E790E090930C0180930B01D9
:10042000809169008C6080936900E99A00E010E097
:1004300080910D01882319F110920D0161E08DE08A
:100440000E9476000E94C300EB0184EFC82EDD24D9
:10045000D394E12CF12C0E94C3006C1B7D0B683EF1
:100460007340C8F381E0C81AD108E108F108C85107
:10047000DC4FC114D104E104F10469F704C060E069
:100480008DE00E9476000115110591F20E94000096
:0C049000CFCFF8940C944C02F894FFCFEE
:00000001FF
