:100000000C945D000C9485000C9485000C94850084
:100010000C9485000C9485000C9485000C9485004C
:100020000C9485000C9485000C9485000C9485003C
:100030000C9485000C9485000C9485000C9485002C
:100040000C9433030C9485000C94F9020C94BE02BA
:100050000C9485000C9485000C9485000C9485000C
:100060000C9485000C94850000000007000201003C
:100070000003040600000000000000000000000073
:10008000250028002B0000000000240027002A0083
:10009000040404040404040402020202020203032E
:1000A0000303030301020408102040800102040836
:1000B00010200102040810207D0311241FBECFEF81
:1000C000D8E0DEBFCDBF11E0A0E0B1E0E8E9F9E0A3
:1000D00002C005900D92A031B107D9F721E0A0E14F
:1000E000B1E001C01D92A33CB207E1F710E0CDE5FD
:1000F000D0E004C02197FE010E94C404CC35D10792
:10010000C9F70E94B8030C949F040C94000090E07F
:10011000FC01EC55FF4F2491FC01E057FF4F849107
:10012000882399F090E0880F991FFC01EA57FF4F50
:10013000A591B491FC01E458FF4F859194918FB73C
:10014000F894EC91E22BEC938FBF08950F931F93DB
:10015000CF93DF93FC01A685B7858D01005C1F4F0F
:10016000E8018881998101968F739927AD014E5BD3
:100170005F4FEA012881398128173907D1F3E80157
:1001800028813981A20FB31F6C93A685B785A05C27
:10019000BF4F11969C938E93A689B7892C9181E0CD
:1001A00090E0078C02C0880F991F0A94E2F7822B17
:1001B0008C9381E081A30488F589E02D808180649F
:1001C000808381E090E0DF91CF911F910F9108959E
:1001D000FC0181A1882329F0A489B5898C9186FF2F
:1001E000FBCF11A20895FC01A485B585FD01E05C5B
:1001F000FF4F208131813296808191812817390704
:1002000079F080819181A80FB91F8C912081318173
:100210002F5F3F4F2F7333273183208390E0089562
:100220008FEF9FEF0895DC011C96ED91FC911D97D7
:10023000DF01A05CBF4F2D913C91119712968D91DB
:100240009C9111972817390739F08D919C91E80FEF
:10025000F91F808190E008958FEF9FEF0895FC01D2
:1002600024853585F901E05CFF4F808191813296CC
:1002700020813181821B930B8F739927089581EA26
:1002800091E00C942F010895CF92DF92EF92FF92AC
:100290000F931F93CF93DF936C01EB017B01E40E6F
:1002A000F51E00E010E0CE15DF0561F06991D60182
:1002B000ED91FC910190F081E02DC6010995080FA8
:1002C000191FF1CFC801DF91CF911F910F91FF90BE
:1002D000EF90DF90CF90089590E0FC01E859FF4F38
:1002E0002491FC01EC55FF4F3491FC01E057FF4F86
:1002F000E491EE2309F43CC0222339F1233091F03C
:1003000038F42130A9F0223001F584B58F7D12C078
:10031000263091F02730A1F02430B9F4809180008C
:100320008F7D03C0809180008F77809380000DC007
:1003300084B58F7784BD09C08091B0008F7703C0EA
:100340008091B0008F7D8093B000F0E0EE0FFF1F32
:10035000E458FF4FA591B4919FB7F894611104C080
:100360008C913095382302C0EC913E2B3C939FBF7B
:1003700008951F93CF93DF93182FEB010E948700FE
:10038000209711F460E004C0CF3FD10539F461E05B
:10039000812FDF91CF911F910C946C01E12FF0E040
:1003A000E859FF4FE491E330F9F048F4E130B9F057
:1003B000E230A1F584B5806284BDC8BD34C0E630AA
:1003C000E9F0E73019F1E43049F58091800080626E
:1003D00080938000D0938B00C0938A0024C084B5A2
:1003E000806884BDC7BD1FC08091800080688093F5
:1003F0008000D0938900C093880015C08091B00020
:1004000080688093B000C093B3000DC08091B000AD
:1004100080628093B000C093B40005C0C038D1059D
:100420000CF0B5CFAFCFDF91CF911F9108953FB7BB
:10043000F8948091150190911601A0911701B09147
:10044000180126B5A89B05C02F3F19F00196A11DE4
:10045000B11D3FBFBA2FA92F982F8827820F911D5A
:10046000A11DB11DBC01CD0142E0660F771F881FA1
:10047000991F4A95D1F70895CF92DF92EF92FF929C
:10048000CF93DF936B017C010E941702EB01C11433
:10049000D104E104F10479F00E9417026C1B7D0B7A
:1004A000683E7340A0F381E0C81AD108E108F10862
:1004B000C851DC4FECCFDF91CF91FF90EF90DF90F0
:1004C000CF9008958F929F92AF92BF92EF92FF923A
:1004D0000F931F93CF93DF93CDB7DEB7A1970FB6DE
:1004E000F894DEBF0FBECDBF162F042F19A24230E5
:1004F00008F40AE07E0121E2E20EF11C802E912C2C
:10050000A12CB12C612FA50194010E94A204029F8D
:100510001019112481E0E81AF1081A3014F4105D62
:1005200001C0195CF7011083122F732FCA01232B0E
:10053000242B252B39F7E114F10469F001900020F8
:10054000E9F73197AF014E195F09B70181EA91E0F0
:100550000E94440102C080E090E0A1960FB6F8949A
:10056000DEBF0FBECDBFDF91CF911F910F91FF90E6
:10057000EF90BF90AF909F908F9008951F920F9231
:100580000FB60F9211242F933F938F939F93EF9366
:10059000FF932091590130915A0180915B01909114
:1005A0005C012817390731F48091C1008F7D809359
:1005B000C10014C0E0915B01F0915C01E75EFE4F69
:1005C000208180915B0190915C0101968F73992746
:1005D00090935C0180935B012093C600FF91EF91A3
:1005E0009F918F913F912F910F900FBE0F901F9071
:1005F00018951F920F920FB60F9211242F934F93BD
:100600005F938F939F93EF93FF938091C00082FD40
:100610001CC02091C60080919D0190919E01409147
:100620009F015091A00101968F7399274817590790
:1006300071F0E0919D01F0919E01E35AFE4F2083FD
:1006400090939E0180939D0102C08091C600FF910E
:10065000EF919F918F915F914F912F910F900FBECE
:100660000F901F9018951F920F920FB60F921124A2
:100670002F933F938F939F93AF93BF9380911101DB
:1006800090911201A0911301B091140130911001C9
:1006900023E0230F2D3720F40196A11DB11D05C0C5
:1006A00026E8230F0296A11DB11D2093100180930F
:1006B000110190931201A0931301B0931401809142
:1006C000150190911601A0911701B09118010196A2
:1006D000A11DB11D8093150190931601A0931701E0
:1006E000B0931801BF91AF919F918F913F912F913E
:1006F0000F900FBE0F901F901895E1EAF1E0138262
:10070000128288EE93E0A0E0B0E084839583A68314
:10071000B78384E091E0918380838DE591E09587B4
:10072000848789E191E09787868785EC90E0918BBB
:10073000808B84EC90E0938B828B80EC90E0958BA7
:10074000848B81EC90E0978B868B82EC90E0918F8C
:10075000808F86EC90E0938F828F84E0848F83E09B
:10076000858F87E0868F85E0878F81E080A308955D
:10077000789484B5826084BD84B5816084BD85B57C
:10078000826085BD85B5816085BD80916E00816088
:1007900080936E001092810080918100826080932E
:1007A0008100809181008160809381008091800030
:1007B0008160809380008091B10084608093B1005B
:1007C0008091B00081608093B00080917A00846055
:1007D00080937A0080917A00826080937A00809181
:1007E0007A00816080937A0080917A00806880939B
:1007F0007A001092C1008AE00E948700E091B50162
:10080000F091B60181E090E09C010090C10102C02E
:10081000220F331F0A94E2F72083E091B101F09197
:10082000B2011082E091B301F091B4012FEC20836A
:100830001092C201E091B701F091B80140819C0192
:100840000090BD0102C0220F331F0A94E2F7242B4F
:100850002083E091B701F091B80140819C010090A4
:10086000BE0102C0220F331F0A94E2F7242B20831B
:10087000E091B701F091B80140819C010090BF0167
:1008800002C0220F331F0A94E2F7242B2083E09149
:10089000B701F091B80120810090C00102C0880F1B
:1008A000991F0A94E2F7809582238083C12CD12C72
:1008B00076014AE0C701B6010E9462026DE081EA5A
:1008C00091E00E94A6006AE081EA91E00E94A60001
:1008D000B6018AE00E94B90163E170E080E090E037
:1008E0000E943C0285E0C80ED11CE11CF11C8FEF78
:1008F000C816D104E104F104E1F64AE0C701B601EB
:100900000E9462026DE081EA91E00E94A6006AE026
:1009100081EA91E00E94A600B6018AE00E94B90136
:1009200063E170E080E090E00E943C0285E0C81A3C
:10093000D108E108F10809F70E943F01B7CFF89408
:100940000C94CA04A1E21A2EAA1BBB1BFD010DC008
:10095000AA1FBB1FEE1FFF1FA217B307E407F5076F
:1009600020F0A21BB30BE40BF50B661F771F881F4B
:10097000991F1A9469F760957095809590959B01E1
:10098000AC01BD01CF010895EE0FFF1F0590F4915A
:08099000E02D0994F894FFCF5B
:1009980000000000A60044012F01F3001301E80045
:00000001FF
