:100000000C945D000C9485000C9485000C94850084
:100010000C9485000C9485000C9485000C9485004C
:100020000C9485000C9485000C9485000C9485003C
:100030000C9485000C9485000C9485000C9485002C
:100040000C9446020C9485000C940C020C94D10183
:100050000C9485000C9485000C9485000C9485000C
:100060000C9485000C94850000000007000201003C
:100070000003040600000000000000000000000073
:10008000250028002B0000000000240027002A0083
:10009000040404040404040402020202020203032E
:1000A0000303030301020408102040800102040836
:1000B0001020010204081020900211241FBECFEF6F
:1000C000D8E0DEBFCDBF11E0A0E0B1E0E4ECF8E0A5
:1000D00002C005900D92A031B107D9F721E0A0E14F
:1000E000B1E001C01D92A53CB207E1F710E0CDE5FB
:1000F000D0E004C02197FE010E945A04CC35D107FC
:10010000C9F70E94CB020C9435040C9400000F93A5
:100110001F93CF93DF93FC01A685B7858D01005C0B
:100120001F4FE8018881998101968F739927AD014E
:100130004E5B5F4FEA012881398128173907D1F3D7
:10014000E80128813981A20FB31F6C93A685B7857A
:10015000A05CBF4F11969C938E93A689B7892C9172
:1001600081E090E0078C02C0880F991F0A94E2F7A3
:10017000822B8C9381E081A30488F589E02D808116
:100180008064808381E090E0DF91CF911F910F9197
:100190000895FC0181A1882329F0A489B5898C9157
:1001A00086FFFBCF11A20895FC01A485B585FD0152
:1001B000E05CFF4F20813181329680819181281748
:1001C000390779F080819181A80FB91F8C91208126
:1001D00031812F5F3F4F2F7333273183208390E08E
:1001E00008958FEF9FEF0895DC011C96ED91FC912F
:1001F0001D97DF01A05CBF4F2D913C911197129686
:100200008D919C9111972817390739F08D919C9108
:10021000E80FF91F808190E008958FEF9FEF089518
:10022000FC0124853585F901E05CFF4F80819181D7
:10023000329620813181821B930B8F739927089509
:1002400083EA91E00C9410010895CF92DF92EF922F
:10025000FF920F931F93CF93DF936C01EB017B0110
:10026000E40EF51E00E010E0CE15DF0561F06991A7
:10027000D601ED91FC910190F081E02DC601099528
:10028000080F191FF1CFC801DF91CF911F910F9176
:10029000FF90EF90DF90CF90089590E0FC01E85937
:1002A000FF4F2491FC01EC55FF4F3491FC01E057C6
:1002B000FF4FE491EE2309F43CC0222339F12330AF
:1002C00091F038F42130A9F0223001F584B58F7D0A
:1002D00012C0263091F02730A1F02430B9F480917B
:1002E00080008F7D03C0809180008F778093800095
:1002F0000DC084B58F7784BD09C08091B0008F7721
:1003000003C08091B0008F7D8093B000F0E0EE0FCD
:10031000FF1FE458FF4FA591B4919FB7F894611166
:1003200004C08C913095382302C0EC913E2B3C9355
:100330009FBF08953FB7F8948091150190911601E1
:10034000A0911701B091180126B5A89B05C02F3FB9
:1003500019F00196A11DB11D3FBFBA2FA92F982FEB
:100360008827820F911DA11DB11DBC01CD0142E066
:10037000660F771F881F991F4A95D1F70895009738
:1003800069F0FC0101900020E9F73197AF01481BAB
:10039000590BBC0183EA91E00C94250180E090E0C8
:1003A00008951F920F920FB60F9211242F933F932F
:1003B0008F939F93EF93FF9320915B0130915C01AA
:1003C00080915D0190915E012817390731F4809189
:1003D000C1008F7D8093C10014C0E0915D01F09158
:1003E0005E01E55EFE4F208180915D0190915E018E
:1003F00001968F73992790935E0180935D012093FE
:10040000C600FF91EF919F918F913F912F910F9097
:100410000FBE0F901F9018951F920F920FB60F925C
:1004200011242F934F935F938F939F93EF93FF9399
:100430008091C00082FD1CC02091C60080919F0168
:100440009091A0014091A1015091A20101968F735A
:1004500099274817590771F0E0919F01F091A00189
:10046000E15AFE4F20839093A00180939F0102C028
:100470008091C600FF91EF919F918F915F914F9175
:100480002F910F900FBE0F901F9018951F920F92F3
:100490000FB60F9211242F933F938F939F93AF9397
:1004A000BF938091110190911201A0911301B0911D
:1004B00014013091100123E0230F2D3720F4019611
:1004C000A11DB11D05C026E8230F0296A11DB11D77
:1004D000209310018093110190931201A0931301B6
:1004E000B09314018091150190911601A09117010C
:1004F000B09118010196A11DB11D80931501909333
:100500001601A0931701B0931801BF91AF919F916D
:100510008F913F912F910F900FBE0F901F901895C4
:10052000E3EAF1E01382128288EE93E0A0E0B0E00B
:1005300084839583A683B78384E091E0918380834D
:100540008FE591E0958784878BE191E09787868797
:1005500085EC90E0918B808B84EC90E0938B828B88
:1005600080EC90E0958B848B81EC90E0978B868B70
:1005700082EC90E0918F808F86EC90E0938F828F59
:1005800084E0848F83E0858F87E0868F85E0878F86
:1005900081E080A30895CF93DF93CDB7DEB7A19715
:1005A0000FB6F894DEBF0FBECDBF789484B58260DD
:1005B00084BD84B5816084BD85B5826085BD85B507
:1005C000816085BD80916E00816080936E00109285
:1005D0008100809181008260809381008091810000
:1005E0008160809381008091800081608093800091
:1005F0008091B10084608093B1008091B0008160EF
:100600008093B00080917A00846080937A0080911A
:100610007A00826080937A0080917A008160809372
:100620007A0080917A00806880937A001092C100ED
:10063000E1EBF0E02491EDE9F0E08491882399F07A
:1006400090E0880F991FFC01EA57FF4FA591B491E4
:10065000FC01E458FF4F859194918FB7F894EC9189
:10066000E22BEC938FBFE091B701F091B80181E0EC
:1006700090E09C010090C30102C0220F331F0A9436
:10068000E2F72083E091B301F091B4011082E09190
:10069000B501F091B6012FEC20831092C401E091D6
:1006A000B901F091BA0140819C010090BF0102C0E4
:1006B000220F331F0A94E2F7242B2083E091B90123
:1006C000F091BA0140819C010090C00102C0220F4C
:1006D000331F0A94E2F7242B2083E091B901F091B3
:1006E000BA0140819C010090C10102C0220F331F5A
:1006F0000A94E2F7242B2083E091B901F091BA012A
:1007000020810090C20102C0880F991F0A94E2F76D
:1007100080958223808390E4792E2AE0822E912C8A
:10072000A12CB12C70927C0080917A00806480931F
:100730007A0080917A0086FDFCCF8091780020912C
:10074000790090E0922B90931A01809319016C012B
:10075000092E000CEE08FF0897FF2DC06DE283EA1A
:1007600091E00E948700F094E094D094C094C11C62
:10077000D11CE11CF11C19A28E010F5D1F4FC70196
:10078000B601A50194010E9438048C2D9AE0299F9E
:1007900080191124015011098A3014F4805D01C0C0
:1007A000895CF801808369017A01232B242B252B96
:1007B00031F7C80123C01C2D7D2DC70119A29E0150
:1007C0002F5D3F4F7901612FA50194010E943804EC
:1007D0008AE0289F1019112491E0E91AF1081A30D3
:1007E00014F4105D01C0195CF7011083122F732FF0
:1007F000CA01232B242B252B31F7C7010E94BF01EF
:100800006DE083EA91E00E9487006AE083EA91E06C
:100810000E9487008091190190911A01883E9340AF
:1008200014F460E001C061E08DE00E944D010E947F
:100830009A018B018AE0C82ED12CE12CF12C0E9468
:100840009A01601B710B683E7340C8F331E0C31A14
:10085000D108E108F10808511C4FC114D104E1048A
:10086000F10469F70E9420015DCFF8940C946004B4
:10087000A1E21A2EAA1BBB1BFD010DC0AA1FBB1FA4
:10088000EE1FFF1FA217B307E407F50720F0A21B16
:10089000B30BE40BF50B661F771F881F991F1A9483
:1008A00069F760957095809590959B01AC01BD01AD
:1008B000CF010895EE0FFF1F0590F491E02D0994EC
:0408C000F894FFCFDA
:1008C40000000000870025011001D400F400C900D5
:00000001FF
