:100000000C946D000C9495000C9495000C94950044
:100010000C9495000C9495000C9495000C94E102BE
:100020000C9495000C9495000C9495000C949500FC
:100030000C9495000C9495000C9495000C949500EC
:100040000C943D030C9495000C94A7020C946C0244
:100050000C9495000C9495000C9495000C949500CC
:100060000C9495000C94950005A84CCDB2D44EB9D3
:100070003836A9020C50B9918688083CA6AAAA2A4B
:10008000BE000000803F00000007000201000003E6
:10009000040600000000000000000200000000252F
:1000A0000028002B0000000000240027002A000484
:1000B000040404040404040202020202020303030F
:1000C0000303030102040810204080010204081009
:1000D0002001020408102000870311241FBECFEF67
:1000E000D8E0DEBFCDBF11E0A0E0B1E0E8EAF4E186
:1000F00002C005900D92A033B107D9F721E0A0E32B
:10010000B1E001C01D92A83FB207E1F710E0CDE6D3
:10011000D0E004C02197FE010E944C0ACC36D107E2
:10012000C9F70E94C2030C94A7070C940000EBECE3
:10013000F0E02491E7EBF0E08491882399F090E0DF
:10014000880F991FFC01EB55FF4FA591B491FC015D
:10015000E556FF4F859194918FB7F894EC91E22B7F
:10016000EC938FBF08950F931F93CF93DF93FC0100
:10017000A685B7858D01005C1F4FE80188819981B4
:1001800001968F739927AD014E5B5F4FEA0128817D
:10019000398128173907D1F3E80128813981A20F65
:1001A000B31F6C93A685B785A05CBF4F11969C9337
:1001B0008E93A689B7892C9181E090E0078C02C0CC
:1001C000880F991F0A94E2F7822B8C9381E081A318
:1001D0000488F589E02D80818064808381E090E04F
:1001E000DF91CF911F910F910895FC0181A1882388
:1001F00029F0A489B5898C9186FFFBCF11A20895BF
:10020000FC01A485B585FD01E05CFF4F20813181B3
:100210003296808191812817390779F08081918108
:10022000A80FB91F8C91208131812F5F3F4F2F7311
:1002300033273183208390E008958FEF9FEF089557
:10024000DC011C96ED91FC911D97DF01A05CBF4F76
:100250002D913C91119712968D919C911197281791
:10026000390739F08D919C91E80FF91F808190E05A
:1002700008958FEF9FEF0895FC0124853585F901DE
:10028000E05CFF4F80819181329620813181821B19
:10029000930B8F739927089586ED91E00C943C01A0
:1002A0000895CF92DF92EF92FF920F931F93CF9317
:1002B000DF936C01EB017B01E40EF51E00E010E022
:1002C000CE15DF0561F06991D601ED91FC910190A9
:1002D000F081E02DC6010995080F191FF1CFC80163
:1002E000DF91CF911F910F91FF90EF90DF90CF9012
:1002F000089590910001891324C0EAE9F0E0E491A7
:100300009FEF90930001E130B9F098F0E230C9F42A
:10031000909170009D7F9093700091E09093B00059
:100320009091B100987F94609093B1001092B300C7
:1003300008C010926E0005C090916F009D7F909351
:100340006F0090E0FC01EA57FF4F2491FC01ED5350
:10035000FF4F3491FC01E155FF4FE491EE23B9F1D9
:10036000222339F1233091F038F42130A9F02230E2
:1003700001F584B58F7D12C0263091F02730A1F0B1
:100380002430B9F4809180008F7D03C0809180007B
:100390008F77809380000DC084B58F7784BD09C0AE
:1003A0008091B0008F7703C08091B0008F7D8093E3
:1003B000B000F0E0EE0FFF1FE556FF4FA591B4919E
:1003C0009FB7F8948C91309538233C939FBF089544
:1003D0003FB7F8948091310190913201A09133019F
:1003E000B091340126B5A89B05C02F3F19F00196A6
:1003F000A11DB11D3FBFBA2FA92F982F8827820FAB
:10040000911DA11DB11DBC01CD0142E0660F771FFA
:10041000881F991F4A95D1F70895009769F0FC014C
:1004200001900020E9F73197AF01481B590BBC013F
:1004300086ED91E00C94510180E090E008958F9258
:100440009F92AF92BF92EF92FF920F931F93CF9321
:10045000DF93CDB7DEB7A1970FB6F894DEBF0FBE1E
:10046000CDBF162F042F19A2423008F40AE07E01F6
:1004700021E2E20EF11C802E912CA12CB12C612FD7
:10048000A50194010E940B0A029F1019112481E01A
:10049000E81AF1081A3014F4105D01C0195CF70174
:1004A0001083122F732FCA01232B242B252B39F7EE
:1004B000C7010E940D02A1960FB6F894DEBF0FBED1
:1004C000CDBFDF91CF911F910F91FF90EF90BF9023
:1004D000AF909F908F9008951F920F920FB60F923A
:1004E00011242F933F938F939F93EF93FF9320912A
:1004F0008E0130918F018091900190919101281788
:10050000390731F48091C1008F7D8093C10014C000
:10051000E0919001F0919101E25BFE4F208180918A
:1005200090019091910101968F7399279093910179
:10053000809390012093C600FF91EF919F918F913E
:100540003F912F910F900FBE0F901F9018951F9203
:100550000F920FB60F9211242F934F935F938F93A7
:100560009F93EF93FF938091C00082FD1CC0209168
:10057000C6008091D2019091D3014091D401509155
:10058000D50101968F7399274817590771F0E091AB
:10059000D201F091D301EE56FE4F20839093D30108
:1005A0008093D20102C08091C600FF91EF919F918C
:1005B0008F915F914F912F910F900FBE0F901F90D1
:1005C00018951F920F920FB60F9211242F933F93FD
:1005D0004F935F936F937F938F939F93AF93BF934B
:1005E000EF93FF9380913A0190913B01A0913C01E0
:1005F000B0913D01892B8A2B8B2B51F190913501C4
:10060000E0913601F09137018081892780838091C4
:100610003A0190913B01A0913C01B0913D01181627
:1006200019061A061B06C4F480913A0190913B0109
:10063000A0913C01B0913D010197A109B1098093BE
:100640003A0190933B01A0933C01B0933D0104C05B
:10065000809100010E947901FF91EF91BF91AF91CC
:100660009F918F917F916F915F914F913F912F91CA
:100670000F900FBE0F901F9018951F920F920FB6FC
:100680000F9211242F933F938F939F93AF93BF9318
:100690008091460190914701A0914801B091490194
:1006A0003091300123E0230F2D3720F40196A11D56
:1006B000B11D05C026E8230F0296A11DB11D209390
:1006C00030018093460190934701A0934801B09375
:1006D00049018091310190913201A0913301B09193
:1006E00034010196A11DB11D809331019093320117
:1006F000A0933301B0933401BF91AF919F918F913B
:100700003F912F910F900FBE0F901F901895E6ED1F
:10071000F1E01382128288EE93E0A0E0B0E08483DF
:100720009583A683B78385E091E09183808382E9F6
:1007300091E0958784878EE491E09787868785ECA2
:1007400090E0918B808B84EC90E0938B828B80EC9B
:1007500090E0958B848B81EC90E0978B868B82EC7C
:1007600090E0918F808F86EC90E0938F828F84E071
:10077000848F83E0858F87E0868F85E0878F81E097
:1007800080A30895789484B5826084BD84B5816027
:1007900084BD85B5826085BD85B5816085BD80914C
:1007A0006E00816080936E001092810080918100C4
:1007B00082608093810080918100816080938100BC
:1007C000809180008160809380008091B10084607E
:1007D0008093B1008091B00081608093B0008091DF
:1007E0007A00846080937A0080917A00826080939E
:1007F0007A0080917A00816080937A0080917A00FB
:10080000806880937A001092C1000E949700E09166
:10081000EA01F091EB0181E090E09C010090F6018B
:1008200002C0220F331F0A94E2F72083E091E60111
:10083000F091E7011082E091E801F091E9012FECDD
:1008400020831092F701E091EC01F091ED014081DD
:100850009C010090F20102C0220F331F0A94E2F7BC
:10086000242B2083E091EC01F091ED0140819C016B
:100870000090F30102C0220F331F0A94E2F7242BE9
:100880002083E091EC01F091ED0140819C0100900A
:10089000F40102C0220F331F0A94E2F7242B2083B5
:1008A000E091EC01F091ED0120810090F50102C092
:1008B000880F991F0A94E2F780958223808380E451
:1008C00080937C0080917A00806480937A0080918C
:1008D0007A0086FDFCCF609178008091790070E00D
:1008E000782B072E000C880B990B0E94540820E0EF
:1008F00030E04AEF5EE30E9409094B015C0120E011
:1009000030E048ED51E40E94040918160CF0C9C10A
:1009100000E010E0EBEC2E2EE0E03E2EB801012EC0
:10092000000C880B990B0E94540822EA35EF4EE820
:100930005CE30E9409090E94760920E030E04AE762
:1009400054E40E9409090E941C086B0120E3C21AAA
:1009500028EFD20A80910001883021F08F3F09F002
:100960007CC104C0EAE9F0E0C4916DC088E08093E6
:100970000001EAE9F0E0C491CF3F09F46EC1C13053
:1009800009F440C030F1C23009F05DC01092B000EF
:100990001092B1008091B00082608093B00080918D
:1009A000B10081608093B100E7EBF0E08491E82F23
:1009B000F0E0EE0FFF1FE556FF4F85919491909365
:1009C000370180933601F101849180933501C2E0B3
:1009D000BBC214BC15BC84B5826084BD85B5816082
:1009E00085BDE7EBF0E08491E82FF0E0EE0FFF1F0C
:1009F000E556FF4F85919491F101849180933901DF
:100A0000C0E0A2C21092800010928100809181000B
:100A10008860809381008091810081608093810053
:100A2000E7EBF0E08491E82FF0E0EE0FFF1FE556D2
:100A3000FF4F85919491F1018491809338010E9438
:100A40009700C1E09BC0C7FD08C10E9497008C2F92
:100A50008D7F09F093C0E12CF12C60E072E18AE710
:100A600090E0A70196010E942D0A29013A01BA01DE
:100A7000A90141505109610971094F3F51056105B3
:100A8000710509F008F445C060E472E48FE090E07D
:100A9000A70196010E942D0ABA01A90141505109EE
:100AA00061097109C230E9F44F3F510561057105D3
:100AB00009F008F4E9C160E970ED83E090E0A70176
:100AC00096010E942D0ABA01A901415051096109FC
:100AD00071094F3F51056105710509F008F583E083
:100AE0004AC04F3F510561057105A9F0A0F068E4C7
:100AF00078EE81E090E0A70196010E942D0ABA01EC
:100B0000A9014150510961097109CC2309F4BEC101
:100B100013C281E001C082E0C1112DC085BD64C057
:100B200068E478EE81E090E0A70196010E942D0A2A
:100B3000BA01A90141505109610971094F3F51059D
:100B40006105710509F008F49DC164E274EF80E06D
:100B500090E0A70196010E942D0ABA01A901415017
:100B60005109610971094F3F51056105710511F086
:100B700008F0BBC185E08093B10030C0E12CF12CBE
:100B800060E072E18AE790E0A70196010E942D0AD9
:100B9000BA01A90141505109610971094115510575
:100BA000F1E06F07710580F068E478EE81E090E095
:100BB000A70196010E942D0ABA01A90141505109CD
:100BC0006109710983E001C081E0C13039F490917D
:100BD0008100987F892B8093810018C0C130B1F0CB
:100BE000C23049F1C11139C047BD8FEF9FEFDC0121
:100BF0008093420190934301A0934401B093450137
:100C000080916E00826080936E0027C050938900AF
:100C1000409388008FEF9FEFDC0180933E0190931B
:100C20003F01A0934001B093410180916F00826029
:100C300080936F0012C04093B3008FEF9FEFDC01F1
:100C400080933A0190933B01A0933C01B0933D0106
:100C5000809170008260809370000E94E8013B01E7
:100C600042E0C42ED12CE12CF12C0E94E80166193F
:100C70007709683E7340C8F3A1E0CA1AD108E108B9
:100C8000F108B8E16B1ABCEF7B0AC114D104E1048E
:100C9000F10459F70F5F1F4F043B110509F03ECED9
:100CA00003C088E00E9479012FB7F8948091460133
:100CB00090914701A0914801B09149012FBF409107
:100CC0004A0150914B0160914C0170914D01841B80
:100CD000950BA60BB70B853F9140A105B10508F414
:100CE000CEC02FB7F8948091460190914701A09112
:100CF0004801B09149012FBF80934A0190934B0165
:100D0000A0934C01B0934D0181E191E00E940D024E
:100D1000A5019401C501B4010E947E09882319F040
:100D20008FE191E01AC075016401E894F7F82FEFA4
:100D30003FEF4FE75FE7C701B6010E947E098111CF
:100D40000FC02FEF3FEF4FE75FE7C701B6010E94EB
:100D5000170818162CF483E291E00E940D0281C05E
:100D60002FEF3FEF4FE75FE4C501B4010E94040994
:100D700018161CF487E291E0F0CF2FEF3FEF4FE71A
:100D80005FECC501B4010E94170887FDF3CF20E096
:100D900030E0A901C501B4010E94170887FF09C00E
:100DA0006DE286ED91E00E94B300B7FAB094B7F817
:100DB000B0942AE037ED43EA5BE3C501B4010E9439
:100DC000AB076B017C010E9423084B015C010E9470
:100DD00052089B01AC01C701B6010E94AA076B0132
:100DE0007C014AE0C501B4010E941F028BE291E040
:100DF0000E940D02C3E0C150A1F120E030E040E2CA
:100E000051E4C701B6010E9409094B015C010E942F
:100E10001C086B01770FEE08FF08F7FE10C06DE2AB
:100E200086ED91E00E94B30088279927DC018C1998
:100E30009D09AE09BF094AE0BC01CD0103C04AE0EB
:100E4000C701B6010E941F02C701B6010E945408E3
:100E50009B01AC01C501B4010E94AA076B017C0192
:100E6000CACF8DE291E00E940D026DE086ED91E027
:100E70000E94B3006AE086ED91E00E94B3000E94F8
:100E80004C011DCD84E077CE82E075CE4F3F5105F9
:100E90006105710541F138F162E17AE780E090E0A7
:100EA000A70196010E942D0ABA01A90141505109DA
:100EB000610971094F3F51056105710591F088F095
:100EC000D301C2013AE0B595A795979587953A95D4
:100ED000D1F7AC01BD01415051096109710985E0AB
:100EE0001DCE84E01BCE83E019CE62E17AE780E07C
:100EF00090E0A70196010E942D0ABA01A901415074
:100F00005109610971094F3F51056105710591F062
:100F100088F0D301C2012AE0B595A79597958795EA
:100F20002A95D1F7AC01BD01415051096109710900
:100F300087E021CE86E01FCE4F3F51056105710548
:100F400009F098F684E0E8CD0E94970084CDF894EB
:100F50000C94520A5058BB27AA270E94C2070C942F
:100F6000CA080E94BC0838F00E94C30820F039F477
:100F70009F3F19F426F40C94B9080EF4E095E7FBB2
:100F80000C94B308E92F0E94DB0858F3BA176207E4
:100F900073078407950720F079F4A6F50C94FD08F3
:100FA0000EF4E0950B2EBA2FA02D0B01B901900184
:100FB0000C01CA01A0011124FF27591B99F0593FC8
:100FC00050F4503E68F11A16F040A22F232F342F10
:100FD0004427585FF3CF469537952795A795F0405E
:100FE0005395C9F77EF41F16BA0B620B730B840B73
:100FF000BAF09150A1F0FF0FBB1F661F771F881F2B
:10100000C2F70EC0BA0F621F731F841F48F4879582
:1010100077956795B795F7959E3F08F0B0CF939574
:10102000880F08F09927EE0F9795879508950E94ED
:101030008F0808F481E008950E9423086894B11194
:101040000C94FE0808950E94E30888F09F5798F0DA
:10105000B92F9927B751B0F0E1F0660F771F881FBD
:10106000991F1AF0BA95C9F714C0B13091F00E94D7
:10107000FD08B1E008950C94FD08672F782F8827AC
:10108000B85F39F0B93FCCF3869577956795B395FE
:10109000D9F73EF490958095709561957F4F8F4F6D
:1010A0009F4F0895E89409C097FB3EF49095809572
:1010B000709561957F4F8F4F9F4F9923A9F0F92F1E
:1010C00096E9BB279395F695879577956795B7959C
:1010D000F111F8CFFAF4BB0F11F460FF1BC06F5F82
:1010E0007F4F8F4F9F4F16C0882311F096E911C094
:1010F000772321F09EE8872F762F05C0662371F0B5
:1011000096E8862F70E060E02AF09A95660F771FC8
:10111000881FDAF7880F9695879597F90895990FA4
:101120000008550FAA0BE0E8FEEF16161706E807B1
:10113000F907C0F012161306E407F50798F0621BD2
:10114000730B840B950B39F40A2661F0232B242BA7
:10115000252B21F408950A2609F4A140A6958FEFC6
:10116000811D811D089597F99F6780E870E060E018
:1011700008959FEF80EC089500240A941616170630
:1011800018060906089500240A9412161306140678
:1011900005060895092E0394000C11F4882352F0DB
:1011A000BB0F40F4BF2B11F460FF04C06F5F7F4F93
:1011B0008F4F9F4F089557FD9058440F551F59F07A
:1011C0005F3F71F04795880F97FB991F61F09F3F34
:1011D00079F087950895121613061406551FF2CF5D
:1011E0004695F1DF08C0161617061806991FF1CFAD
:1011F00086957105610508940895E894BB276627D4
:101200007727CB0197F908950E948F0808F48FEF94
:1012100008950E941C090C94CA080E94BC0838F06A
:101220000E94C30820F0952311F00C94B3080C948D
:10123000B90811240C94FE080E94DB0870F3959FF6
:10124000C1F3950F50E0551F629FF001729FBB27BD
:10125000F00DB11D639FAA27F00DB11DAA1F649F59
:101260006627B00DA11D661F829F2227B00DA11D0C
:10127000621F739FB00DA11D621F839FA00D611D92
:10128000221F749F3327A00D611D231F849F600DB3
:10129000211D822F762F6A2F11249F5750409AF0DC
:1012A000F1F088234AF0EE0FFF1FBB1F661F771F68
:1012B000881F91505040A9F79E3F510580F00C9433
:1012C000B3080C94FE085F3FE4F3983ED4F3869590
:1012D00077956795B795F795E7959F5FC1F7FE2BD3
:1012E000880F911D9695879597F908959F930E9471
:1012F00085090F9007FCEE5F0C94AE090E948F08E1
:10130000880B990B08950C94B9080E94E308D8F350
:10131000E894E0E0BB279F57F0F02AED3FE049EC6E
:1013200006C0EE0FBB0F661F771F881F28F0B23A6A
:1013300062077307840728F0B25A620B730B840BA1
:10134000E3959A9572F7803830F49A95BB0F661F33
:10135000771F881FD2F790480C94C409EF93E0FFE1
:1013600007C0A2EA2AED3FE049EC5FEB0E94C2070A
:101370000E94CA080F90039401FC9058E8E6F0E040
:101380000C94D0099F3F31F0915020F487957795C8
:101390006795B795880F911D9695879597F908954C
:1013A0009F938F937F936F93FF93EF939B01AC0178
:1013B0000E940909EF91FF910E94E4092F913F914A
:1013C0004F915F910C940909DF93CF931F930F9373
:1013D000FF92EF92DF927B018C01689406C0DA2EB7
:1013E000EF010E941C09FE01E894A5912591359119
:1013F00045915591A6F3EF010E94C207FE019701A6
:10140000A801DA9469F7DF90EF90FF900F911F9198
:10141000CF91DF910895A1E21A2EAA1BBB1BFD01FB
:101420000DC0AA1FBB1FEE1FFF1FA217B307E407C3
:10143000F50720F0A21BB30BE40BF50B661F771F1B
:10144000881F991F1A9469F76095709580959095FB
:101450009B01AC01BD01CF010895052E97FB1EF441
:1014600000940E94440A57FD07D00E940B0A07FC13
:1014700003D04EF40C94440A509540953095219534
:101480003F4F4F4F5F4F08959095809570956195B0
:101490007F4F8F4F9F4F0895EE0FFF1F0590F491E0
:0814A000E02D0994F894FFCF40
:1014A800FF00000000B30051013C0100012001F5DC
:1014B8000074656D70657261747572653A20006EAE
:1014C800616E00696E66006F7666002E004300004C
:00000001FF
