:100000000C9461000C9473000C9473000C947300B6
:100010000C9473000C9473000C9473000C94730094
:100020000C9473000C9473000C9473000C94730084
:100030000C9473000C9473000C9473000C94730074
:100040000C9454010C9473000C9473000C94730082
:100050000C9473000C9473000C9473000C94730054
:100060000C9473000C94730000000000240027001F
:100070002A0000000000250028002B0000000000DE
:1000800023002600290004040404040404040202DA
:100090000202020203030303030301020408102007
:1000A0004080010204081020010204081020000012
:1000B0000007000201000003040600000000000029
:1000C000000011241FBECFEFD8E0DEBFCDBF21E07E
:1000D000A0E0B1E001C01D92AD30B207E1F70E948F
:1000E0009E010C94C1020C940000833081F028F42E
:1000F000813099F08230A1F008958630A9F08730E0
:10010000B9F08430D1F4809180008F7D03C080915C
:1001100080008F7780938000089584B58F7702C028
:1001200084B58F7D84BD08958091B0008F7703C022
:100130008091B0008F7D8093B00008951F93CF937E
:10014000DF93282F30E0F901E255FF4F8491F90148
:10015000E656FF4FD491F901EA57FF4FC491CC23E3
:10016000C1F0162F81110E947500EC2FF0E0EE0F08
:10017000FF1FEE58FF4FA591B4919FB7F89411114E
:1001800004C08C91D095D82302C0EC91DE2BDC9377
:100190009FBFDF91CF911F910895CF93DF9390E0A0
:1001A000FC01E656FF4F2491FC01EA57FF4F849172
:1001B000882361F190E0880F991FFC01E859FF4FF7
:1001C000C591D491FC01EE58FF4FA591B4916111F6
:1001D00009C09FB7F8948881209582238883EC9189
:1001E0002E230BC0623061F49FB7F8948881322FC0
:1001F000309583238883EC912E2B2C939FBF06C0D0
:100200008FB7F894E8812E2B28838FBFDF91CF9191
:1002100008953FB7F8948091010190910201A09157
:100220000301B091040126B5A89B05C02F3F19F02A
:100230000196A11DB11D3FBFBA2FA92F982F882766
:10024000820F911DA11DB11DBC01CD0142E0660FC1
:10025000771F881F991F4A95D1F70895CF92DF9293
:10026000EF92FF92CF93DF936B017C010E94090113
:10027000EB01C114D104E104F10479F00E940901F9
:100280006C1B7D0B683E7340A0F381E0C81AD10857
:10029000E108F108C851DC4FECCFDF91CF91FF901E
:1002A000EF90DF90CF9008951F920F920FB60F92AC
:1002B00011242F933F938F939F93AF93BF9380917C
:1002C000050190910601A0910701B09108013091BC
:1002D000000123E0230F2D3720F40196A11DB11D4D
:1002E00005C026E8230F0296A11DB11D2093000131
:1002F0008093050190930601A0930701B093080134
:100300008091010190910201A0910301B09104013B
:100310000196A11DB11D8093010190930201A0934C
:100320000301B0930401BF91AF919F918F913F91D1
:100330002F910F900FBE0F901F901895789484B551
:10034000826084BD84B5816084BD85B5826085BDD1
:1003500085B5816085BD80916E00816080936E005F
:100360001092810080918100826080938100809151
:100370008100816080938100809180008160809302
:1003800080008091B10084608093B1008091B000C2
:1003900081608093B00080917A00846080937A00BD
:1003A00080917A00826080937A0080917A008160E7
:1003B00080937A0080917A00806880937A0010920E
:1003C000C10061E08CE00E94CD0061E08BE00E9402
:1003D000CD0061E08AE00E94CD0061E088E00E94EB
:1003E000CD0061E087E00E94CD0060E089E00E94DE
:1003F000CD0061E08AE00E949E0061E088E00E94FA
:100400009E00C7EBD0E003EA10E02FE8E22E20E0E8
:10041000F22E30E0C32E30E0D32EFE018491F8019D
:10042000A490F701B490BB2009F4A4C081110E94EC
:100430007500EB2DF0E0EE0FFF1FE458FF4FA59184
:10044000B4918C918A2109F495C02FB7F8948091CA
:10045000050190910601A0910701B09108012FBFFD
:100460004091090150910A0160910B0170910C01BA
:10047000841B950BA60BB70B89389341A105B105D9
:1004800008F478C060E08AE00E949E0061E08BE0A2
:100490000E949E0060ED77E080E090E00E942E01D7
:1004A00060E08BE00E949E0061E08CE00E949E0074
:1004B00068EE73E080E090E00E942E0160E088E04A
:1004C0000E949E0061E087E00E949E0068E873E160
:1004D00080E090E00E942E018AE0A82EB12C61E01D
:1004E00087E00E949E006AEF70E080E090E00E944A
:1004F0002E0160E087E00E949E006AEF70E080E0DD
:1005000090E00E942E01F1E0AF1AB10841F761E0DE
:1005100088E00E949E0064EF71E080E090E00E941D
:100520002E0160E08CE00E949E0061E08BE00E9462
:100530009E0068EE73E080E090E00E942E0160E093
:100540008BE00E949E0061E08AE00E949E002FB72F
:10055000F8948091050190910601A0910701B09156
:1005600008012FBF8093090190930A01A0930B010A
:10057000B0930C01C114D10409F44FCF0E940000C4
:0C0580004CCFF8940C94C402F894FFCF08
:00000001FF
